{
  "_format": "hh-sol-artifact-1",
  "contractName": "p6d",
  "sourceName": "contracts/p6d.sol",
  "abi": [
    {
      "anonymous": false,
      "inputs": [
        {
          "indexed": true,
          "internalType": "address",
          "name": "previousOwner",
          "type": "address"
        },
        {
          "indexed": true,
          "internalType": "address",
          "name": "newOwner",
          "type": "address"
        }
      ],
      "name": "OwnershipTransferred",
      "type": "event"
    },
    {
      "inputs": [
        {
          "internalType": "address",
          "name": "_addr",
          "type": "address"
        }
      ],
      "name": "getVaultPtr",
      "outputs": [
        {
          "internalType": "string",
          "name": "",
          "type": "string"
        }
      ],
      "stateMutability": "view",
      "type": "function"
    },
    {
      "inputs": [],
      "name": "owner",
      "outputs": [
        {
          "internalType": "address",
          "name": "",
          "type": "address"
        }
      ],
      "stateMutability": "view",
      "type": "function"
    },
    {
      "inputs": [],
      "name": "renounceOwnership",
      "outputs": [],
      "stateMutability": "nonpayable",
      "type": "function"
    },
    {
      "inputs": [],
      "name": "serviceFee",
      "outputs": [
        {
          "internalType": "uint256",
          "name": "",
          "type": "uint256"
        }
      ],
      "stateMutability": "view",
      "type": "function"
    },
    {
      "inputs": [
        {
          "internalType": "address",
          "name": "newOwner",
          "type": "address"
        }
      ],
      "name": "transferOwnership",
      "outputs": [],
      "stateMutability": "nonpayable",
      "type": "function"
    },
    {
      "inputs": [
        {
          "internalType": "uint256",
          "name": "_amount",
          "type": "uint256"
        }
      ],
      "name": "updateServiceFee",
      "outputs": [],
      "stateMutability": "nonpayable",
      "type": "function"
    },
    {
      "inputs": [
        {
          "internalType": "string",
          "name": "_vaultPtr",
          "type": "string"
        }
      ],
      "name": "updateVaultPtr",
      "outputs": [],
      "stateMutability": "payable",
      "type": "function"
    },
    {
      "inputs": [],
      "name": "withdrawBalance",
      "outputs": [],
      "stateMutability": "nonpayable",
      "type": "function"
    }
  ],
  "bytecode": "0x608060405234801561001057600080fd5b5061002d61002261003260201b60201c565b61003a60201b60201c565b6100fe565b600033905090565b60008060009054906101000a900473ffffffffffffffffffffffffffffffffffffffff169050816000806101000a81548173ffffffffffffffffffffffffffffffffffffffff021916908373ffffffffffffffffffffffffffffffffffffffff1602179055508173ffffffffffffffffffffffffffffffffffffffff168173ffffffffffffffffffffffffffffffffffffffff167f8be0079c531659141344cd1fd0a4f28419497f9722a3daafe3b4186f6b6457e060405160405180910390a35050565b610d258061010d6000396000f3fe60806040526004361061007b5760003560e01c80638da5cb5b1161004e5780638da5cb5b146100f557806395123b0b14610120578063ae4b7c261461015d578063f2fde38b146101865761007b565b80635fd8c710146100805780636b10d65b14610097578063715018a6146100b35780638abdf5aa146100ca575b600080fd5b34801561008c57600080fd5b506100956101af565b005b6100b160048036038101906100ac919061088b565b6102e1565b005b3480156100bf57600080fd5b506100c8610379565b005b3480156100d657600080fd5b506100df610401565b6040516100ec9190610ad1565b60405180910390f35b34801561010157600080fd5b5061010a610407565b6040516101179190610a14565b60405180910390f35b34801561012c57600080fd5b5061014760048036038101906101429190610862565b610430565b6040516101549190610a2f565b60405180910390f35b34801561016957600080fd5b50610184600480360381019061017f91906108d0565b610501565b005b34801561019257600080fd5b506101ad60048036038101906101a89190610862565b610587565b005b6101b761067f565b73ffffffffffffffffffffffffffffffffffffffff166101d5610407565b73ffffffffffffffffffffffffffffffffffffffff161461022b576040517f08c379a000000000000000000000000000000000000000000000000000000000815260040161022290610ab1565b60405180910390fd5b6000610235610407565b73ffffffffffffffffffffffffffffffffffffffff1647604051610258906109ff565b60006040518083038185875af1925050503d8060008114610295576040519150601f19603f3d011682016040523d82523d6000602084013e61029a565b606091505b50509050806102de576040517f08c379a00000000000000000000000000000000000000000000000000000000081526004016102d590610a51565b60405180910390fd5b50565b600254341015610326576040517f08c379a000000000000000000000000000000000000000000000000000000000815260040161031d90610a91565b60405180910390fd5b8181600160003373ffffffffffffffffffffffffffffffffffffffff1673ffffffffffffffffffffffffffffffffffffffff168152602001908152602001600020919061037492919061074b565b505050565b61038161067f565b73ffffffffffffffffffffffffffffffffffffffff1661039f610407565b73ffffffffffffffffffffffffffffffffffffffff16146103f5576040517f08c379a00000000000000000000000000000000000000000000000000000000081526004016103ec90610ab1565b60405180910390fd5b6103ff6000610687565b565b60025481565b60008060009054906101000a900473ffffffffffffffffffffffffffffffffffffffff16905090565b6060600160008373ffffffffffffffffffffffffffffffffffffffff1673ffffffffffffffffffffffffffffffffffffffff168152602001908152602001600020805461047c90610b82565b80601f01602080910402602001604051908101604052809291908181526020018280546104a890610b82565b80156104f55780601f106104ca576101008083540402835291602001916104f5565b820191906000526020600020905b8154815290600101906020018083116104d857829003601f168201915b50505050509050919050565b61050961067f565b73ffffffffffffffffffffffffffffffffffffffff16610527610407565b73ffffffffffffffffffffffffffffffffffffffff161461057d576040517f08c379a000000000000000000000000000000000000000000000000000000000815260040161057490610ab1565b60405180910390fd5b8060028190555050565b61058f61067f565b73ffffffffffffffffffffffffffffffffffffffff166105ad610407565b73ffffffffffffffffffffffffffffffffffffffff1614610603576040517f08c379a00000000000000000000000000000000000000000000000000000000081526004016105fa90610ab1565b60405180910390fd5b600073ffffffffffffffffffffffffffffffffffffffff168173ffffffffffffffffffffffffffffffffffffffff161415610673576040517f08c379a000000000000000000000000000000000000000000000000000000000815260040161066a90610a71565b60405180910390fd5b61067c81610687565b50565b600033905090565b60008060009054906101000a900473ffffffffffffffffffffffffffffffffffffffff169050816000806101000a81548173ffffffffffffffffffffffffffffffffffffffff021916908373ffffffffffffffffffffffffffffffffffffffff1602179055508173ffffffffffffffffffffffffffffffffffffffff168173ffffffffffffffffffffffffffffffffffffffff167f8be0079c531659141344cd1fd0a4f28419497f9722a3daafe3b4186f6b6457e060405160405180910390a35050565b82805461075790610b82565b90600052602060002090601f01602090048101928261077957600085556107c0565b82601f1061079257803560ff19168380011785556107c0565b828001600101855582156107c0579182015b828111156107bf5782358255916020019190600101906107a4565b5b5090506107cd91906107d1565b5090565b5b808211156107ea5760008160009055506001016107d2565b5090565b6000813590506107fd81610cc1565b92915050565b60008083601f84011261081557600080fd5b8235905067ffffffffffffffff81111561082e57600080fd5b60208301915083600182028301111561084657600080fd5b9250929050565b60008135905061085c81610cd8565b92915050565b60006020828403121561087457600080fd5b6000610882848285016107ee565b91505092915050565b6000806020838503121561089e57600080fd5b600083013567ffffffffffffffff8111156108b857600080fd5b6108c485828601610803565b92509250509250929050565b6000602082840312156108e257600080fd5b60006108f08482850161084d565b91505092915050565b61090281610b13565b82525050565b600061091382610aec565b61091d8185610b02565b935061092d818560208601610b4f565b61093681610be3565b840191505092915050565b600061094e601b83610b02565b915061095982610bf4565b602082019050919050565b6000610971602683610b02565b915061097c82610c1d565b604082019050919050565b6000610994601d83610b02565b915061099f82610c6c565b602082019050919050565b60006109b7602083610b02565b91506109c282610c95565b602082019050919050565b60006109da600083610af7565b91506109e582610cbe565b600082019050919050565b6109f981610b45565b82525050565b6000610a0a826109cd565b9150819050919050565b6000602082019050610a2960008301846108f9565b92915050565b60006020820190508181036000830152610a498184610908565b905092915050565b60006020820190508181036000830152610a6a81610941565b9050919050565b60006020820190508181036000830152610a8a81610964565b9050919050565b60006020820190508181036000830152610aaa81610987565b9050919050565b60006020820190508181036000830152610aca816109aa565b9050919050565b6000602082019050610ae660008301846109f0565b92915050565b600081519050919050565b600081905092915050565b600082825260208201905092915050565b6000610b1e82610b25565b9050919050565b600073ffffffffffffffffffffffffffffffffffffffff82169050919050565b6000819050919050565b60005b83811015610b6d578082015181840152602081019050610b52565b83811115610b7c576000848401525b50505050565b60006002820490506001821680610b9a57607f821691505b60208210811415610bae57610bad610bb4565b5b50919050565b7f4e487b7100000000000000000000000000000000000000000000000000000000600052602260045260246000fd5b6000601f19601f8301169050919050565b7f4661696c656420746f2077697468647261772062616c616e63652e0000000000600082015250565b7f4f776e61626c653a206e6577206f776e657220697320746865207a65726f206160008201527f6464726573730000000000000000000000000000000000000000000000000000602082015250565b7f5365727669636520666565206d7573742062652070726f76696465642e000000600082015250565b7f4f776e61626c653a2063616c6c6572206973206e6f7420746865206f776e6572600082015250565b50565b610cca81610b13565b8114610cd557600080fd5b50565b610ce181610b45565b8114610cec57600080fd5b5056fea26469706673582212201944b0e579adcd42cf0af402232dd46e71f1f2ce00cdc5f72fab0f6f9904032c64736f6c63430008040033",
  "linkReferences": {},
  "deployedLinkReferences": {}
}